{
  "contractName": "MySite",
  "abi": [
    {
      "constant": true,
      "inputs": [],
      "name": "transCount",
      "outputs": [
        {
          "name": "",
          "type": "uint256"
        }
      ],
      "payable": false,
      "stateMutability": "view",
      "type": "function"
    },
    {
      "constant": true,
      "inputs": [],
      "name": "totalVerifiedSites",
      "outputs": [
        {
          "name": "",
          "type": "uint256"
        }
      ],
      "payable": false,
      "stateMutability": "view",
      "type": "function"
    },
    {
      "constant": false,
      "inputs": [
        {
          "name": "_name",
          "type": "string"
        },
        {
          "name": "_url",
          "type": "string"
        },
        {
          "name": "_mail",
          "type": "string"
        },
        {
          "name": "_hash",
          "type": "string"
        }
      ],
      "name": "addDetails",
      "outputs": [],
      "payable": false,
      "stateMutability": "nonpayable",
      "type": "function"
    },
    {
      "constant": false,
      "inputs": [],
      "name": "verifySite",
      "outputs": [],
      "payable": false,
      "stateMutability": "nonpayable",
      "type": "function"
    },
    {
      "constant": true,
      "inputs": [
        {
          "name": "_id",
          "type": "uint256"
        }
      ],
      "name": "getVerifiedSites",
      "outputs": [
        {
          "name": "",
          "type": "string"
        },
        {
          "name": "",
          "type": "address"
        },
        {
          "name": "",
          "type": "string"
        },
        {
          "name": "",
          "type": "string"
        },
        {
          "name": "",
          "type": "uint256"
        }
      ],
      "payable": false,
      "stateMutability": "view",
      "type": "function"
    },
    {
      "constant": true,
      "inputs": [],
      "name": "getDevDetails",
      "outputs": [
        {
          "name": "",
          "type": "string"
        },
        {
          "name": "",
          "type": "string"
        },
        {
          "name": "",
          "type": "string"
        }
      ],
      "payable": false,
      "stateMutability": "view",
      "type": "function"
    }
  ],
  "bytecode": "0x608060405260008055600060015534801561001957600080fd5b50611827806100296000396000f3fe608060405234801561001057600080fd5b50600436106100625760003560e01c806329cc62221461006757806345033f4c146102e7578063513a462a146102f15780636d0a5c3d1461030f578063835f581f146104c8578063a3ea8464146104e6575b600080fd5b6102e56004803603608081101561007d57600080fd5b810190808035906020019064010000000081111561009a57600080fd5b8201836020820111156100ac57600080fd5b803590602001918460018302840111640100000000831117156100ce57600080fd5b91908080601f016020809104026020016040519081016040528093929190818152602001838380828437600081840152601f19601f8201169050808301925050505050505091929192908035906020019064010000000081111561013157600080fd5b82018360208201111561014357600080fd5b8035906020019184600183028401116401000000008311171561016557600080fd5b91908080601f016020809104026020016040519081016040528093929190818152602001838380828437600081840152601f19601f820116905080830192505050505050509192919290803590602001906401000000008111156101c857600080fd5b8201836020820111156101da57600080fd5b803590602001918460018302840111640100000000831117156101fc57600080fd5b91908080601f016020809104026020016040519081016040528093929190818152602001838380828437600081840152601f19601f8201169050808301925050505050505091929192908035906020019064010000000081111561025f57600080fd5b82018360208201111561027157600080fd5b8035906020019184600183028401116401000000008311171561029357600080fd5b91908080601f016020809104026020016040519081016040528093929190818152602001838380828437600081840152601f19601f820116905080830192505050505050509192919290505050610641565b005b6102ef610a6f565b005b6102f9611110565b6040518082815260200191505060405180910390f35b61033b6004803603602081101561032557600080fd5b8101908080359060200190929190505050611116565b60405180806020018673ffffffffffffffffffffffffffffffffffffffff1673ffffffffffffffffffffffffffffffffffffffff1681526020018060200180602001858152602001848103845289818151815260200191508051906020019080838360005b838110156103bb5780820151818401526020810190506103a0565b50505050905090810190601f1680156103e85780820380516001836020036101000a031916815260200191505b50848103835287818151815260200191508051906020019080838360005b83811015610421578082015181840152602081019050610406565b50505050905090810190601f16801561044e5780820380516001836020036101000a031916815260200191505b50848103825286818151815260200191508051906020019080838360005b8381101561048757808201518184015260208101905061046c565b50505050905090810190601f1680156104b45780820380516001836020036101000a031916815260200191505b509850505050505050505060405180910390f35b6104d06113be565b6040518082815260200191505060405180910390f35b6104ee6113c4565b60405180806020018060200180602001848103845287818151815260200191508051906020019080838360005b8381101561053657808201518184015260208101905061051b565b50505050905090810190601f1680156105635780820380516001836020036101000a031916815260200191505b50848103835286818151815260200191508051906020019080838360005b8381101561059c578082015181840152602081019050610581565b50505050905090810190601f1680156105c95780820380516001836020036101000a031916815260200191505b50848103825285818151815260200191508051906020019080838360005b838110156106025780820151818401526020810190506105e7565b50505050905090810190601f16801561062f5780820380516001836020036101000a031916815260200191505b50965050505050505060405180910390f35b8260018081111561064e57fe5b6004826040518082805190602001908083835b602083106106845780518252602082019150602081019050602083039250610661565b6001836020036101000a038019825116818451168082178552505050505050905001915050908152602001604051809103902060009054906101000a900460ff1660018111156106d057fe5b1415610744576040517f08c379a000000000000000000000000000000000000000000000000000000000815260040180806020018281038252601d8152602001807f546869732055524c20697320616c72656164792076657269666965642100000081525060200191505060405180910390fd5b836003816040518082805190602001908083835b6020831061077b5780518252602082019150602081019050602083039250610758565b6001836020036101000a0380198251168184511680821785525050505050509050019150509081526020016040518091039020600201544211610826576040517f08c379a000000000000000000000000000000000000000000000000000000000815260040180806020018281038252601d8152602001807f546869732055524c2069732063757272656e746c79206861736865642100000081525060200191505060405180910390fd5b600260003373ffffffffffffffffffffffffffffffffffffffff1673ffffffffffffffffffffffffffffffffffffffff1681526020019081526020016000206003015442116108c0576040517f08c379a000000000000000000000000000000000000000000000000000000000815260040180806020018281038252602f81526020018061179b602f913960400191505060405180910390fd5b600160008154809291906001019190505550604051806080016040528087815260200186815260200185815260200160644201815250600260003373ffffffffffffffffffffffffffffffffffffffff1673ffffffffffffffffffffffffffffffffffffffff168152602001908152602001600020600082015181600001908051906020019061095192919061166e565b50602082015181600101908051906020019061096e92919061166e565b50604082015181600201908051906020019061098b92919061166e565b50606082015181600301559050506040518060600160405280868152602001848152602001606442018152506003866040518082805190602001908083835b602083106109ed57805182526020820191506020810190506020830392506109ca565b6001836020036101000a03801982511681845116808217855250505050505090500191505090815260200160405180910390206000820151816000019080519060200190610a3c92919061166e565b506020820151816001019080519060200190610a5992919061166e565b5060408201518160020155905050505050505050565b600260003373ffffffffffffffffffffffffffffffffffffffff1673ffffffffffffffffffffffffffffffffffffffff168152602001908152602001600020600301544210610b09576040517f08c379a00000000000000000000000000000000000000000000000000000000081526004018080602001828103825260328152602001806117ca6032913960400191505060405180910390fd5b60008081548092919060010191905055506001600081548092919060010191905055506060600260003373ffffffffffffffffffffffffffffffffffffffff1673ffffffffffffffffffffffffffffffffffffffff1681526020019081526020016000206001018054600181600116156101000203166002900480601f016020809104026020016040519081016040528092919081815260200182805460018160011615610100020316600290048015610c045780601f10610bd957610100808354040283529160200191610c04565b820191906000526020600020905b815481529060010190602001808311610be757829003601f168201915b505050505090506040518060a001604052808281526020013373ffffffffffffffffffffffffffffffffffffffff168152602001600260003373ffffffffffffffffffffffffffffffffffffffff1673ffffffffffffffffffffffffffffffffffffffff1681526020019081526020016000206000018054600181600116156101000203166002900480601f016020809104026020016040519081016040528092919081815260200182805460018160011615610100020316600290048015610d0e5780601f10610ce357610100808354040283529160200191610d0e565b820191906000526020600020905b815481529060010190602001808311610cf157829003601f168201915b50505050508152602001600260003373ffffffffffffffffffffffffffffffffffffffff1673ffffffffffffffffffffffffffffffffffffffff1681526020019081526020016000206002018054600181600116156101000203166002900480601f016020809104026020016040519081016040528092919081815260200182805460018160011615610100020316600290048015610dee5780601f10610dc357610100808354040283529160200191610dee565b820191906000526020600020905b815481529060010190602001808311610dd157829003601f168201915b50505050508152602001428152506005826040518082805190602001908083835b60208310610e325780518252602082019150602081019050602083039250610e0f565b6001836020036101000a03801982511681845116808217855250505050505090500191505090815260200160405180910390206000820151816000019080519060200190610e8192919061166e565b5060208201518160010160006101000a81548173ffffffffffffffffffffffffffffffffffffffff021916908373ffffffffffffffffffffffffffffffffffffffff1602179055506040820151816002019080519060200190610ee592919061166e565b506060820151816003019080519060200190610f0292919061166e565b506080820151816004015590505060016004826040518082805190602001908083835b60208310610f485780518252602082019150602081019050602083039250610f25565b6001836020036101000a038019825116818451168082178552505050505050905001915050908152602001604051809103902060006101000a81548160ff02191690836001811115610f9657fe5b02179055506005816040518082805190602001908083835b60208310610fd15780518252602082019150602081019050602083039250610fae565b6001836020036101000a038019825116818451168082178552505050505050905001915050908152602001604051809103902060066000548154811061101357fe5b9060005260206000209060050201600082018160000190805460018160011615610100020316600290046110489291906116ee565b506001820160009054906101000a900473ffffffffffffffffffffffffffffffffffffffff168160010160006101000a81548173ffffffffffffffffffffffffffffffffffffffff021916908373ffffffffffffffffffffffffffffffffffffffff160217905550600282018160020190805460018160011615610100020316600290046110d79291906116ee565b50600382018160030190805460018160011615610100020316600290046110ff9291906116ee565b506004820154816004015590505050565b60015481565b6060600060608060006006868154811061112c57fe5b90600052602060002090600502016000016006878154811061114a57fe5b906000526020600020906005020160010160009054906101000a900473ffffffffffffffffffffffffffffffffffffffff166006888154811061118957fe5b9060005260206000209060050201600201600689815481106111a757fe5b906000526020600020906005020160030160068a815481106111c557fe5b906000526020600020906005020160040154848054600181600116156101000203166002900480601f01602080910402602001604051908101604052809291908181526020018280546001816001161561010002031660029004801561126c5780601f106112415761010080835404028352916020019161126c565b820191906000526020600020905b81548152906001019060200180831161124f57829003601f168201915b50505050509450828054600181600116156101000203166002900480601f0160208091040260200160405190810160405280929190818152602001828054600181600116156101000203166002900480156113085780601f106112dd57610100808354040283529160200191611308565b820191906000526020600020905b8154815290600101906020018083116112eb57829003601f168201915b50505050509250818054600181600116156101000203166002900480601f0160208091040260200160405190810160405280929190818152602001828054600181600116156101000203166002900480156113a45780601f10611379576101008083540402835291602001916113a4565b820191906000526020600020905b81548152906001019060200180831161138757829003601f168201915b505050505091509450945094509450945091939590929450565b60005481565b6060806060600260003373ffffffffffffffffffffffffffffffffffffffff1673ffffffffffffffffffffffffffffffffffffffff168152602001908152602001600020600001600260003373ffffffffffffffffffffffffffffffffffffffff1673ffffffffffffffffffffffffffffffffffffffff168152602001908152602001600020600101600260003373ffffffffffffffffffffffffffffffffffffffff1673ffffffffffffffffffffffffffffffffffffffff168152602001908152602001600020600201828054600181600116156101000203166002900480601f0160208091040260200160405190810160405280929190818152602001828054600181600116156101000203166002900480156115245780601f106114f957610100808354040283529160200191611524565b820191906000526020600020905b81548152906001019060200180831161150757829003601f168201915b50505050509250818054600181600116156101000203166002900480601f0160208091040260200160405190810160405280929190818152602001828054600181600116156101000203166002900480156115c05780601f10611595576101008083540402835291602001916115c0565b820191906000526020600020905b8154815290600101906020018083116115a357829003601f168201915b50505050509150808054600181600116156101000203166002900480601f01602080910402602001604051908101604052809291908181526020018280546001816001161561010002031660029004801561165c5780601f106116315761010080835404028352916020019161165c565b820191906000526020600020905b81548152906001019060200180831161163f57829003601f168201915b50505050509050925092509250909192565b828054600181600116156101000203166002900490600052602060002090601f016020900481019282601f106116af57805160ff19168380011785556116dd565b828001600101855582156116dd579182015b828111156116dc5782518255916020019190600101906116c1565b5b5090506116ea9190611775565b5090565b828054600181600116156101000203166002900490600052602060002090601f016020900481019282601f106117275780548555611764565b8280016001018555821561176457600052602060002091601f016020900482015b82811115611763578254825591600101919060010190611748565b5b5090506117719190611775565b5090565b61179791905b8082111561179357600081600090555060010161177b565b5090565b9056fe54686973206164647265737320697320616c726561647920696e20612076616c69646174696f6e2077696e646f77215468652076616c69646174696f6e2077696e646f7720666f7220746869732061646472657373206973206578706972656421a165627a7a723058202653940c1b020e074a683d891aa94ec6ed8bcfa37e68b4bcfecea7abb316d3710029",
  "source": "pragma solidity ^0.5.0;\r\n\r\ncontract MySite {\r\n    \r\n    uint public totalVerifiedSites = 0;\r\n    uint public transCount = 0;\r\n    \r\n    enum URLState {Unknown, Verified}\r\n    \r\n    struct TempDev {\r\n        string name;\r\n        string url;\r\n        string mail;\r\n        uint timeLimit;\r\n    }\r\n    \r\n    struct TempURL {\r\n        string URL;\r\n        string hash;\r\n        uint timeLimit;\r\n    }\r\n    \r\n    mapping (address => TempDev) devs;\r\n    mapping (string => TempURL) urls;\r\n    \r\n    struct VerifiedURL {\r\n        string url;\r\n        address developer;\r\n        string developer_name;\r\n        string developer_mail;\r\n        uint time;\r\n    }\r\n    \r\n    mapping (string => URLState) urlState;\r\n    mapping (string => VerifiedURL) verifiedUrls;\r\n    \r\n    VerifiedURL[] verifiedSites;\r\n    \r\n    modifier URLVerified (string memory _url) {\r\n        require(urlState[_url] != URLState.Verified, \"This URL is already verified!\");\r\n        _;\r\n    }\r\n    \r\n    modifier URLHashed (string memory _url) {\r\n        require(block.timestamp > urls[_url].timeLimit, \"This URL is currently hashed!\");\r\n        _;\r\n    }\r\n    \r\n    modifier verifyUserState() {\r\n        require(block.timestamp > devs[msg.sender].timeLimit, \"This address is already in a validation window!\");\r\n        _;\r\n    }\r\n    \r\n    modifier verifyValidationTime() {\r\n        require(block.timestamp < devs[msg.sender].timeLimit, \"The validation window for this address is expired!\");\r\n        _;\r\n    }\r\n    \r\n    function addDetails(string memory _name, string memory _url, string memory _mail, string memory _hash) \r\n    \r\n        public \r\n        \r\n        URLVerified(_url)\r\n        URLHashed(_url)\r\n        verifyUserState\r\n    \r\n    {\r\n        \r\n        transCount++;\r\n        devs[msg.sender] = TempDev(_name, _url, _mail, block.timestamp + 100);\r\n        urls[_url] = TempURL(_url, _hash, block.timestamp + 100);\r\n        \r\n    }\r\n    \r\n    function verifySite() \r\n        \r\n        public \r\n        \r\n        verifyValidationTime\r\n        \r\n    {\r\n        totalVerifiedSites++;\r\n        transCount++;\r\n        \r\n        string memory _dev = devs[msg.sender].url;\r\n        verifiedUrls[_dev] = VerifiedURL(_dev, msg.sender, devs[msg.sender].name, devs[msg.sender].mail, block.timestamp);\r\n        urlState[_dev] = URLState.Verified;\r\n        verifiedSites[totalVerifiedSites] = verifiedUrls[_dev];\r\n    }\r\n    \r\n   function getVerifiedSites(uint _id) public view returns(string memory, address, string memory, string memory, uint) {\r\n       return (\r\n           verifiedSites[_id].url,\r\n           verifiedSites[_id].developer,\r\n           verifiedSites[_id].developer_name,\r\n           verifiedSites[_id].developer_mail,\r\n           verifiedSites[_id].time\r\n           );\r\n   } \r\n\r\n   function getDevDetails() public view returns(string memory, string memory, string memory) {\r\n       return (\r\n           devs[msg.sender].name,\r\n           devs[msg.sender].url,\r\n           devs[msg.sender].mail\r\n       );\r\n   }\r\n}",
  "sourcePath": "C:/Users/Manolingam/Documents/GitHub/Dapp/contracts/MySite.sol",
  "compiler": {
    "name": "solc",
    "version": "0.5.8+commit.23d335f2.Emscripten.clang"
  },
  "schemaVersion": "3.0.11",
  "updatedAt": "2019-07-18T14:35:20.118Z",
  "devdoc": {
    "methods": {}
  },
  "userdoc": {
    "methods": {}
  }
}